{
  "contractName": "Project",
  "abi": [
    {
      "inputs": [
        {
          "internalType": "address payable",
          "name": "_owner",
          "type": "address"
        },
        {
          "internalType": "string",
          "name": "_title",
          "type": "string"
        },
        {
          "internalType": "string",
          "name": "_description",
          "type": "string"
        },
        {
          "internalType": "uint256",
          "name": "_deadline",
          "type": "uint256"
        },
        {
          "internalType": "uint256",
          "name": "_goalAmount",
          "type": "uint256"
        },
        {
          "internalType": "string",
          "name": "_imgHash",
          "type": "string"
        },
        {
          "internalType": "string",
          "name": "_category",
          "type": "string"
        }
      ],
      "stateMutability": "nonpayable",
      "type": "constructor"
    },
    {
      "anonymous": false,
      "inputs": [
        {
          "indexed": false,
          "internalType": "address",
          "name": "recipient",
          "type": "address"
        }
      ],
      "name": "CreatorPaid",
      "type": "event"
    },
    {
      "anonymous": false,
      "inputs": [
        {
          "indexed": false,
          "internalType": "address",
          "name": "contributor",
          "type": "address"
        },
        {
          "indexed": false,
          "internalType": "uint256",
          "name": "amount",
          "type": "uint256"
        },
        {
          "indexed": false,
          "internalType": "uint256",
          "name": "currentTotal",
          "type": "uint256"
        }
      ],
      "name": "FundingReceived",
      "type": "event"
    },
    {
      "inputs": [],
      "name": "category",
      "outputs": [
        {
          "internalType": "string",
          "name": "",
          "type": "string"
        }
      ],
      "stateMutability": "view",
      "type": "function"
    },
    {
      "inputs": [
        {
          "internalType": "address",
          "name": "",
          "type": "address"
        }
      ],
      "name": "contributions",
      "outputs": [
        {
          "internalType": "uint256",
          "name": "",
          "type": "uint256"
        }
      ],
      "stateMutability": "view",
      "type": "function"
    },
    {
      "inputs": [
        {
          "internalType": "uint256",
          "name": "",
          "type": "uint256"
        }
      ],
      "name": "contributorsArray",
      "outputs": [
        {
          "internalType": "address",
          "name": "",
          "type": "address"
        }
      ],
      "stateMutability": "view",
      "type": "function"
    },
    {
      "inputs": [],
      "name": "currentBalance",
      "outputs": [
        {
          "internalType": "uint256",
          "name": "",
          "type": "uint256"
        }
      ],
      "stateMutability": "view",
      "type": "function"
    },
    {
      "inputs": [],
      "name": "deadline",
      "outputs": [
        {
          "internalType": "uint256",
          "name": "",
          "type": "uint256"
        }
      ],
      "stateMutability": "view",
      "type": "function"
    },
    {
      "inputs": [],
      "name": "description",
      "outputs": [
        {
          "internalType": "string",
          "name": "",
          "type": "string"
        }
      ],
      "stateMutability": "view",
      "type": "function"
    },
    {
      "inputs": [],
      "name": "finishTime",
      "outputs": [
        {
          "internalType": "uint256",
          "name": "",
          "type": "uint256"
        }
      ],
      "stateMutability": "view",
      "type": "function"
    },
    {
      "inputs": [],
      "name": "goalAmount",
      "outputs": [
        {
          "internalType": "uint256",
          "name": "",
          "type": "uint256"
        }
      ],
      "stateMutability": "view",
      "type": "function"
    },
    {
      "inputs": [],
      "name": "imgHash",
      "outputs": [
        {
          "internalType": "string",
          "name": "",
          "type": "string"
        }
      ],
      "stateMutability": "view",
      "type": "function"
    },
    {
      "inputs": [],
      "name": "owner",
      "outputs": [
        {
          "internalType": "address payable",
          "name": "",
          "type": "address"
        }
      ],
      "stateMutability": "view",
      "type": "function"
    },
    {
      "inputs": [],
      "name": "state",
      "outputs": [
        {
          "internalType": "enum Project.State",
          "name": "",
          "type": "uint8"
        }
      ],
      "stateMutability": "view",
      "type": "function"
    },
    {
      "inputs": [],
      "name": "title",
      "outputs": [
        {
          "internalType": "string",
          "name": "",
          "type": "string"
        }
      ],
      "stateMutability": "view",
      "type": "function"
    },
    {
      "inputs": [],
      "name": "contribute",
      "outputs": [],
      "stateMutability": "payable",
      "type": "function"
    },
    {
      "inputs": [],
      "name": "checkStateOfProject",
      "outputs": [],
      "stateMutability": "nonpayable",
      "type": "function"
    },
    {
      "inputs": [],
      "name": "getRefund",
      "outputs": [
        {
          "internalType": "bool",
          "name": "",
          "type": "bool"
        }
      ],
      "stateMutability": "nonpayable",
      "type": "function"
    },
    {
      "inputs": [],
      "name": "getDetails",
      "outputs": [
        {
          "internalType": "address payable",
          "name": "projectOwner",
          "type": "address"
        },
        {
          "internalType": "string",
          "name": "projectTitle",
          "type": "string"
        },
        {
          "internalType": "string",
          "name": "projectDesc",
          "type": "string"
        },
        {
          "internalType": "uint256",
          "name": "projectDeadline",
          "type": "uint256"
        },
        {
          "internalType": "enum Project.State",
          "name": "currentState",
          "type": "uint8"
        },
        {
          "internalType": "uint256",
          "name": "currentAmount",
          "type": "uint256"
        },
        {
          "internalType": "uint256",
          "name": "projectGoalAmount",
          "type": "uint256"
        },
        {
          "internalType": "string",
          "name": "projectImgHash",
          "type": "string"
        },
        {
          "internalType": "string",
          "name": "projectCategory",
          "type": "string"
        },
        {
          "internalType": "address[]",
          "name": "projectContributors",
          "type": "address[]"
        }
      ],
      "stateMutability": "view",
      "type": "function"
    },
    {
      "inputs": [
        {
          "internalType": "address",
          "name": "_address",
          "type": "address"
        }
      ],
      "name": "returnContributorValue",
      "outputs": [
        {
          "internalType": "uint256",
          "name": "",
          "type": "uint256"
        }
      ],
      "stateMutability": "view",
      "type": "function"
    }
  ],
  "bytecode": "0x60806040523480156200001157600080fd5b5060405162001da038038062001da0833981810160405281019062000037919062000419565b866000806101000a81548173ffffffffffffffffffffffffffffffffffffffff021916908373ffffffffffffffffffffffffffffffffffffffff16021790555085600590805190602001906200008f9291906200012c565b508460069080519060200190620000a89291906200012c565b5083600481905550826001819055508160079080519060200190620000cf9291906200012c565b5060006003819055506000600860006101000a81548160ff0219169083600281111562000101576200010062000548565b5b021790555080600990805190602001906200011e9291906200012c565b5050505050505050620005db565b8280546200013a90620005a6565b90600052602060002090601f0160209004810192826200015e5760008555620001aa565b82601f106200017957805160ff1916838001178555620001aa565b82800160010185558215620001aa579182015b82811115620001a95782518255916020019190600101906200018c565b5b509050620001b99190620001bd565b5090565b5b80821115620001d8576000816000905550600101620001be565b5090565b6000604051905090565b600080fd5b600080fd5b600073ffffffffffffffffffffffffffffffffffffffff82169050919050565b60006200021d82620001f0565b9050919050565b6200022f8162000210565b81146200023b57600080fd5b50565b6000815190506200024f8162000224565b92915050565b600080fd5b600080fd5b6000601f19601f8301169050919050565b7f4e487b7100000000000000000000000000000000000000000000000000000000600052604160045260246000fd5b620002aa826200025f565b810181811067ffffffffffffffff82111715620002cc57620002cb62000270565b5b80604052505050565b6000620002e1620001dc565b9050620002ef82826200029f565b919050565b600067ffffffffffffffff82111562000312576200031162000270565b5b6200031d826200025f565b9050602081019050919050565b60005b838110156200034a5780820151818401526020810190506200032d565b838111156200035a576000848401525b50505050565b6000620003776200037184620002f4565b620002d5565b9050828152602081018484840111156200039657620003956200025a565b5b620003a38482856200032a565b509392505050565b600082601f830112620003c357620003c262000255565b5b8151620003d584826020860162000360565b91505092915050565b6000819050919050565b620003f381620003de565b8114620003ff57600080fd5b50565b6000815190506200041381620003e8565b92915050565b600080600080600080600060e0888a0312156200043b576200043a620001e6565b5b60006200044b8a828b016200023e565b975050602088015167ffffffffffffffff8111156200046f576200046e620001eb565b5b6200047d8a828b01620003ab565b965050604088015167ffffffffffffffff811115620004a157620004a0620001eb565b5b620004af8a828b01620003ab565b9550506060620004c28a828b0162000402565b9450506080620004d58a828b0162000402565b93505060a088015167ffffffffffffffff811115620004f957620004f8620001eb565b5b620005078a828b01620003ab565b92505060c088015167ffffffffffffffff8111156200052b576200052a620001eb565b5b620005398a828b01620003ab565b91505092959891949750929550565b7f4e487b7100000000000000000000000000000000000000000000000000000000600052602160045260246000fd5b7f4e487b7100000000000000000000000000000000000000000000000000000000600052602260045260246000fd5b60006002820490506001821680620005bf57607f821691505b602082108103620005d557620005d462000577565b5b50919050565b6117b580620005eb6000396000f3fe6080604052600436106100fe5760003560e01c80637284e41611610095578063c19d93fb11610064578063c19d93fb14610329578063ce845d1d14610354578063d7bb99ba1461037f578063ef430aa614610389578063fbbf93a0146103b4576100fe565b80637284e4161461026b5780638da5cb5b14610296578063b2d5ae44146102c1578063bf77a2ef146102ec576100fe565b806342e94c90116100d157806342e94c90146101ad5780634a79d50c146101ea5780635958611e146102155780635a41c85514610240576100fe565b8063039e50d21461010357806319e0307f1461011a5780632636b9451461015757806329dcb0cf14610182575b600080fd5b34801561010f57600080fd5b506101186103e8565b005b34801561012657600080fd5b50610141600480360381019061013c919061106f565b61046c565b60405161014e91906110dd565b60405180910390f35b34801561016357600080fd5b5061016c6104ab565b6040516101799190611107565b60405180910390f35b34801561018e57600080fd5b506101976104b1565b6040516101a49190611107565b60405180910390f35b3480156101b957600080fd5b506101d460048036038101906101cf919061114e565b6104b7565b6040516101e19190611107565b60405180910390f35b3480156101f657600080fd5b506101ff6104cf565b60405161020c9190611214565b60405180910390f35b34801561022157600080fd5b5061022a61055d565b6040516102379190611107565b60405180910390f35b34801561024c57600080fd5b50610255610563565b6040516102629190611214565b60405180910390f35b34801561027757600080fd5b506102806105f1565b60405161028d9190611214565b60405180910390f35b3480156102a257600080fd5b506102ab61067f565b6040516102b89190611257565b60405180910390f35b3480156102cd57600080fd5b506102d66106a3565b6040516102e3919061128d565b60405180910390f35b3480156102f857600080fd5b50610313600480360381019061030e919061114e565b61089b565b6040516103209190611107565b60405180910390f35b34801561033557600080fd5b5061033e6108e4565b60405161034b919061131f565b60405180910390f35b34801561036057600080fd5b506103696108f7565b6040516103769190611107565b60405180910390f35b6103876108fd565b005b34801561039557600080fd5b5061039e610b0a565b6040516103ab9190611214565b60405180910390f35b3480156103c057600080fd5b506103c9610b98565b6040516103df9a999897969594939291906113f8565b60405180910390f35b6001546003541061042c576002600860006101000a81548160ff02191690836002811115610419576104186112a8565b5b0217905550610426610eb5565b50610463565b600454421115610462576001600860006101000a81548160ff0219169083600281111561045c5761045b6112a8565b5b02179055505b5b42600281905550565b600b818154811061047c57600080fd5b906000526020600020016000915054906101000a900473ffffffffffffffffffffffffffffffffffffffff1681565b60015481565b60045481565b600a6020528060005260406000206000915090505481565b600580546104dc906114e6565b80601f0160208091040260200160405190810160405280929190818152602001828054610508906114e6565b80156105555780601f1061052a57610100808354040283529160200191610555565b820191906000526020600020905b81548152906001019060200180831161053857829003601f168201915b505050505081565b60025481565b60078054610570906114e6565b80601f016020809104026020016040519081016040528092919081815260200182805461059c906114e6565b80156105e95780601f106105be576101008083540402835291602001916105e9565b820191906000526020600020905b8154815290600101906020018083116105cc57829003601f168201915b505050505081565b600680546105fe906114e6565b80601f016020809104026020016040519081016040528092919081815260200182805461062a906114e6565b80156106775780601f1061064c57610100808354040283529160200191610677565b820191906000526020600020905b81548152906001019060200180831161065a57829003601f168201915b505050505081565b60008054906101000a900473ffffffffffffffffffffffffffffffffffffffff1681565b600060018060028111156106ba576106b96112a8565b5b600860009054906101000a900460ff1660028111156106dc576106db6112a8565b5b1461071c576040517f08c379a000000000000000000000000000000000000000000000000000000000815260040161071390611563565b60405180910390fd5b6000600a60003373ffffffffffffffffffffffffffffffffffffffff1673ffffffffffffffffffffffffffffffffffffffff168152602001908152602001600020541161076857600080fd5b6000600a60003373ffffffffffffffffffffffffffffffffffffffff1673ffffffffffffffffffffffffffffffffffffffff1681526020019081526020016000205490506000600a60003373ffffffffffffffffffffffffffffffffffffffff1673ffffffffffffffffffffffffffffffffffffffff168152602001908152602001600020819055503373ffffffffffffffffffffffffffffffffffffffff166108fc829081150290604051600060405180830381858888f193505050506108785780600a60003373ffffffffffffffffffffffffffffffffffffffff1673ffffffffffffffffffffffffffffffffffffffff168152602001908152602001600020819055506000925050610897565b806003600082825461088a91906115b2565b9250508190555060019250505b5090565b6000600a60008373ffffffffffffffffffffffffffffffffffffffff1673ffffffffffffffffffffffffffffffffffffffff168152602001908152602001600020549050919050565b600860009054906101000a900460ff1681565b60035481565b6000806002811115610912576109116112a8565b5b600860009054906101000a900460ff166002811115610934576109336112a8565b5b14610974576040517f08c379a000000000000000000000000000000000000000000000000000000000815260040161096b90611563565b60405180910390fd5b60008054906101000a900473ffffffffffffffffffffffffffffffffffffffff1673ffffffffffffffffffffffffffffffffffffffff163373ffffffffffffffffffffffffffffffffffffffff1603610a02576040517f08c379a00000000000000000000000000000000000000000000000000000000081526004016109f990611658565b60405180910390fd5b34600a60003373ffffffffffffffffffffffffffffffffffffffff1673ffffffffffffffffffffffffffffffffffffffff168152602001908152602001600020819055503460036000828254610a589190611678565b92505081905550600b339080600181540180825580915050600190039060005260206000200160009091909190916101000a81548173ffffffffffffffffffffffffffffffffffffffff021916908373ffffffffffffffffffffffffffffffffffffffff1602179055507f5cdc4ab8d637538ead6cc1904d4160343656c8c82bd266635cfd31ac008fffe03334600354604051610af7939291906116ce565b60405180910390a1610b076103e8565b50565b60098054610b17906114e6565b80601f0160208091040260200160405190810160405280929190818152602001828054610b43906114e6565b8015610b905780601f10610b6557610100808354040283529160200191610b90565b820191906000526020600020905b815481529060010190602001808311610b7357829003601f168201915b505050505081565b6000606080600080600080606080606060008054906101000a900473ffffffffffffffffffffffffffffffffffffffff16995060058054610bd8906114e6565b80601f0160208091040260200160405190810160405280929190818152602001828054610c04906114e6565b8015610c515780601f10610c2657610100808354040283529160200191610c51565b820191906000526020600020905b815481529060010190602001808311610c3457829003601f168201915b5050505050985060068054610c65906114e6565b80601f0160208091040260200160405190810160405280929190818152602001828054610c91906114e6565b8015610cde5780601f10610cb357610100808354040283529160200191610cde565b820191906000526020600020905b815481529060010190602001808311610cc157829003601f168201915b505050505097506004549650600860009054906101000a900460ff1695506003549450600154935060078054610d13906114e6565b80601f0160208091040260200160405190810160405280929190818152602001828054610d3f906114e6565b8015610d8c5780601f10610d6157610100808354040283529160200191610d8c565b820191906000526020600020905b815481529060010190602001808311610d6f57829003601f168201915b5050505050925060098054610da0906114e6565b80601f0160208091040260200160405190810160405280929190818152602001828054610dcc906114e6565b8015610e195780601f10610dee57610100808354040283529160200191610e19565b820191906000526020600020905b815481529060010190602001808311610dfc57829003601f168201915b50505050509150600b805480602002602001604051908101604052809291908181526020018280548015610ea257602002820191906000526020600020905b8160009054906101000a900473ffffffffffffffffffffffffffffffffffffffff1673ffffffffffffffffffffffffffffffffffffffff1681526020019060010190808311610e58575b5050505050905090919293949596979899565b60006002806002811115610ecc57610ecb6112a8565b5b600860009054906101000a900460ff166002811115610eee57610eed6112a8565b5b14610f2e576040517f08c379a0000000000000000000000000000000000000000000000000000000008152600401610f2590611563565b60405180910390fd5b60006003549050600060038190555060008054906101000a900473ffffffffffffffffffffffffffffffffffffffff1673ffffffffffffffffffffffffffffffffffffffff166108fc829081150290604051600060405180830381858888f1935050505015610ff8577f2f256415efc8561af8db667cb242964b19be7380f379ccdafaa0e54a6f6b706960008054906101000a900473ffffffffffffffffffffffffffffffffffffffff16604051610fe69190611764565b60405180910390a16001925050611030565b806003819055506002600860006101000a81548160ff02191690836002811115611025576110246112a8565b5b021790555060009250505b5090565b600080fd5b6000819050919050565b61104c81611039565b811461105757600080fd5b50565b60008135905061106981611043565b92915050565b60006020828403121561108557611084611034565b5b60006110938482850161105a565b91505092915050565b600073ffffffffffffffffffffffffffffffffffffffff82169050919050565b60006110c78261109c565b9050919050565b6110d7816110bc565b82525050565b60006020820190506110f260008301846110ce565b92915050565b61110181611039565b82525050565b600060208201905061111c60008301846110f8565b92915050565b61112b816110bc565b811461113657600080fd5b50565b60008135905061114881611122565b92915050565b60006020828403121561116457611163611034565b5b600061117284828501611139565b91505092915050565b600081519050919050565b600082825260208201905092915050565b60005b838110156111b557808201518184015260208101905061119a565b838111156111c4576000848401525b50505050565b6000601f19601f8301169050919050565b60006111e68261117b565b6111f08185611186565b9350611200818560208601611197565b611209816111ca565b840191505092915050565b6000602082019050818103600083015261122e81846111db565b905092915050565b60006112418261109c565b9050919050565b61125181611236565b82525050565b600060208201905061126c6000830184611248565b92915050565b60008115159050919050565b61128781611272565b82525050565b60006020820190506112a2600083018461127e565b92915050565b7f4e487b7100000000000000000000000000000000000000000000000000000000600052602160045260246000fd5b600381106112e8576112e76112a8565b5b50565b60008190506112f9826112d7565b919050565b6000611309826112eb565b9050919050565b611319816112fe565b82525050565b60006020820190506113346000830184611310565b92915050565b600081519050919050565b600082825260208201905092915050565b6000819050602082019050919050565b61136f816110bc565b82525050565b60006113818383611366565b60208301905092915050565b6000602082019050919050565b60006113a58261133a565b6113af8185611345565b93506113ba83611356565b8060005b838110156113eb5781516113d28882611375565b97506113dd8361138d565b9250506001810190506113be565b5085935050505092915050565b60006101408201905061140e600083018d611248565b8181036020830152611420818c6111db565b90508181036040830152611434818b6111db565b9050611443606083018a6110f8565b6114506080830189611310565b61145d60a08301886110f8565b61146a60c08301876110f8565b81810360e083015261147c81866111db565b905081810361010083015261149181856111db565b90508181036101208301526114a6818461139a565b90509b9a5050505050505050505050565b7f4e487b7100000000000000000000000000000000000000000000000000000000600052602260045260246000fd5b600060028204905060018216806114fe57607f821691505b602082108103611511576115106114b7565b5b50919050565b7f50726f6a65637420697320696e20646966666572656e74207374617465000000600082015250565b600061154d601d83611186565b915061155882611517565b602082019050919050565b6000602082019050818103600083015261157c81611540565b9050919050565b7f4e487b7100000000000000000000000000000000000000000000000000000000600052601160045260246000fd5b60006115bd82611039565b91506115c883611039565b9250828210156115db576115da611583565b5b828203905092915050565b7f596f752061726520747279696e6720746f2073656e64206d6f6e657920746f2060008201527f796f7572206f776e2070726f6a65637400000000000000000000000000000000602082015250565b6000611642603083611186565b915061164d826115e6565b604082019050919050565b6000602082019050818103600083015261167181611635565b9050919050565b600061168382611039565b915061168e83611039565b9250827fffffffffffffffffffffffffffffffffffffffffffffffffffffffffffffffff038211156116c3576116c2611583565b5b828201905092915050565b60006060820190506116e360008301866110ce565b6116f060208301856110f8565b6116fd60408301846110f8565b949350505050565b6000819050919050565b600061172a6117256117208461109c565b611705565b61109c565b9050919050565b600061173c8261170f565b9050919050565b600061174e82611731565b9050919050565b61175e81611743565b82525050565b60006020820190506117796000830184611755565b9291505056fea2646970667358221220ae851d6225d35d0c128cdbb3deb833b9a62d89976415d2d0889f522d95e698ee64736f6c634300080d0033",
  "immutableReferences": {},
  "source": "// SPDX-License-Identifier: MIT\npragma solidity >=0.4.22 <0.9.0;\n\ncontract Project {\n\n    enum State {\n        Fundraising,\n        Expired,\n        Successful\n    }\n\n    address payable public owner;\n    uint public goalAmount;\n    uint public finishTime;\n    uint256 public currentBalance;\n    uint public deadline;\n    string public title;\n    string public description;\n    string public imgHash;\n    State public state;\n    string public category;\n\n    mapping (address => uint) public contributions;\n    address[] public contributorsArray;\n\n    event FundingReceived(address contributor, uint amount, uint currentTotal);\n    event CreatorPaid(address recipient);\n\n    modifier inState(State _state) {\n        require(state == _state, \"Project is in different state\");\n        _;\n    }\n\n    constructor\n    (\n        address payable _owner,\n        string memory _title,\n        string memory _description,\n        uint _deadline,\n        uint _goalAmount,\n        string memory _imgHash,\n        string memory _category\n    ) {\n        owner = _owner;\n        title = _title;\n        description = _description;\n        deadline = _deadline;\n        goalAmount = _goalAmount;\n        imgHash = _imgHash;\n        currentBalance = 0;\n        state = State.Fundraising;\n        category = _category;\n    }\n\n    function contribute() external inState(State.Fundraising) payable {\n        require(msg.sender != owner, \"You are trying to send money to your own project\");\n        // require((currentBalance + msg.value) < goalAmount, \"You are trying to overpay \");\n\n        contributions[msg.sender] = msg.value;\n        currentBalance += msg.value;\n        contributorsArray.push(msg.sender);\n        emit FundingReceived(msg.sender, msg.value, currentBalance);\n        checkStateOfProject();\n    }\n\n\n    function checkStateOfProject() public {\n        if (currentBalance >= goalAmount) {\n            state = State.Successful;\n            payOut();\n        } else if (block.timestamp > deadline)  {\n            state = State.Expired;\n        }\n        finishTime = block.timestamp;\n    }\n\n    function payOut() internal inState(State.Successful) returns (bool) {\n        uint256 totalRaised = currentBalance;\n        currentBalance = 0;\n\n        if (owner.send(totalRaised)) {\n            emit CreatorPaid(owner);\n            return true;\n        } else {\n            currentBalance = totalRaised;\n            state = State.Successful;\n        }\n\n        return false;\n    }\n\n    function getRefund() public inState(State.Expired) returns (bool) {\n        require(contributions[msg.sender] > 0);\n\n        uint amountToRefund = contributions[msg.sender];\n        contributions[msg.sender] = 0;\n\n        if (!payable(msg.sender).send(amountToRefund)) {\n            contributions[msg.sender] = amountToRefund;\n            return false;\n        } else {\n            currentBalance -= amountToRefund;\n        }\n\n        return true;\n    }\n\n    function getDetails() public view returns \n    (\n        address payable projectOwner,\n        string memory projectTitle,\n        string memory projectDesc,\n        uint256 projectDeadline,\n        State currentState,\n        uint256 currentAmount,\n        uint256 projectGoalAmount,\n        string memory projectImgHash,\n        string memory projectCategory,\n        address [] memory projectContributors\n\n    ) {\n        projectOwner = owner;\n        projectTitle = title;\n        projectDesc = description;\n        projectDeadline = deadline;\n        currentState = state;\n        currentAmount = currentBalance;\n        projectGoalAmount = goalAmount;\n        projectImgHash = imgHash;\n        projectCategory = category;\n        projectContributors = contributorsArray;\n    }\n\n    function returnContributorValue(address _address) public view returns (uint) {\n        return contributions[_address];\n    }\n\n}",
  "sourcePath": "D:\\Skola\\learn-vue\\crowdfunding-vuex\\truffle\\contracts\\Project.sol",
  "compiler": {
    "name": "solc",
    "version": "0.8.13+commit.abaa5c0e.Emscripten.clang"
  },
  "schemaVersion": "3.4.7",
  "updatedAt": "2022-05-13T11:37:16.845Z",
  "devdoc": {
    "kind": "dev",
    "methods": {},
    "version": 1
  },
  "userdoc": {
    "kind": "user",
    "methods": {},
    "version": 1
  }
}